{
  "_format": "hh-sol-artifact-1",
  "contractName": "Betting",
  "sourceName": "contracts/BettingContract.sol",
  "abi": [
    {
      "inputs": [
        {
          "internalType": "contract BettingToken",
          "name": "token_",
          "type": "address"
        },
        {
          "internalType": "uint256",
          "name": "endBlock_",
          "type": "uint256"
        }
      ],
      "stateMutability": "nonpayable",
      "type": "constructor"
    },
    {
      "anonymous": false,
      "inputs": [
        {
          "indexed": true,
          "internalType": "uint256",
          "name": "teamId_",
          "type": "uint256"
        }
      ],
      "name": "Betted",
      "type": "event"
    },
    {
      "anonymous": false,
      "inputs": [
        {
          "indexed": true,
          "internalType": "uint256",
          "name": "winner_",
          "type": "uint256"
        }
      ],
      "name": "Ended",
      "type": "event"
    },
    {
      "anonymous": false,
      "inputs": [
        {
          "indexed": true,
          "internalType": "uint256",
          "name": "teamId_",
          "type": "uint256"
        }
      ],
      "name": "Raised",
      "type": "event"
    },
    {
      "anonymous": false,
      "inputs": [
        {
          "indexed": false,
          "internalType": "address",
          "name": "account_",
          "type": "address"
        },
        {
          "indexed": false,
          "internalType": "uint256",
          "name": "amount_",
          "type": "uint256"
        }
      ],
      "name": "TokensBought",
      "type": "event"
    },
    {
      "inputs": [
        {
          "internalType": "uint256",
          "name": "teamId_",
          "type": "uint256"
        },
        {
          "internalType": "uint256",
          "name": "amount_",
          "type": "uint256"
        }
      ],
      "name": "bet",
      "outputs": [
        {
          "internalType": "bool",
          "name": "success",
          "type": "bool"
        }
      ],
      "stateMutability": "nonpayable",
      "type": "function"
    },
    {
      "inputs": [
        {
          "internalType": "uint256",
          "name": "teamId_",
          "type": "uint256"
        }
      ],
      "name": "bets",
      "outputs": [
        {
          "internalType": "address[]",
          "name": "",
          "type": "address[]"
        }
      ],
      "stateMutability": "view",
      "type": "function"
    },
    {
      "inputs": [
        {
          "internalType": "uint256",
          "name": "winner_",
          "type": "uint256"
        }
      ],
      "name": "end",
      "outputs": [
        {
          "internalType": "bool",
          "name": "success",
          "type": "bool"
        }
      ],
      "stateMutability": "nonpayable",
      "type": "function"
    },
    {
      "inputs": [],
      "name": "endBlock",
      "outputs": [
        {
          "internalType": "uint256",
          "name": "",
          "type": "uint256"
        }
      ],
      "stateMutability": "view",
      "type": "function"
    },
    {
      "inputs": [
        {
          "internalType": "uint256",
          "name": "amount_",
          "type": "uint256"
        }
      ],
      "name": "raise",
      "outputs": [
        {
          "internalType": "bool",
          "name": "success",
          "type": "bool"
        }
      ],
      "stateMutability": "nonpayable",
      "type": "function"
    },
    {
      "inputs": [
        {
          "internalType": "address",
          "name": "account_",
          "type": "address"
        }
      ],
      "name": "teamBetted",
      "outputs": [
        {
          "internalType": "uint256",
          "name": "",
          "type": "uint256"
        }
      ],
      "stateMutability": "view",
      "type": "function"
    },
    {
      "inputs": [
        {
          "internalType": "uint256",
          "name": "teamId_",
          "type": "uint256"
        }
      ],
      "name": "teams",
      "outputs": [
        {
          "components": [
            {
              "internalType": "uint256",
              "name": "id",
              "type": "uint256"
            },
            {
              "internalType": "string",
              "name": "name",
              "type": "string"
            },
            {
              "internalType": "uint256",
              "name": "bets",
              "type": "uint256"
            },
            {
              "internalType": "uint256",
              "name": "tokens",
              "type": "uint256"
            }
          ],
          "internalType": "struct Team",
          "name": "",
          "type": "tuple"
        }
      ],
      "stateMutability": "view",
      "type": "function"
    },
    {
      "inputs": [],
      "name": "teamsCount",
      "outputs": [
        {
          "internalType": "uint256",
          "name": "",
          "type": "uint256"
        }
      ],
      "stateMutability": "view",
      "type": "function"
    },
    {
      "inputs": [],
      "name": "timer",
      "outputs": [
        {
          "internalType": "uint256",
          "name": "time",
          "type": "uint256"
        }
      ],
      "stateMutability": "view",
      "type": "function"
    },
    {
      "inputs": [],
      "name": "totalBetted",
      "outputs": [
        {
          "internalType": "uint256",
          "name": "",
          "type": "uint256"
        }
      ],
      "stateMutability": "view",
      "type": "function"
    },
    {
      "stateMutability": "payable",
      "type": "receive"
    }
  ],
  "bytecode": "0x60806040523480156200001157600080fd5b506040516200244f3803806200244f833981810160405281019062000037919062000361565b6200007d6040518060400160405280600981526020017f53616f205061756c6f0000000000000000000000000000000000000000000000815250620001ec60201b60201c565b620000c36040518060400160405280600b81526020017f436f72696e746869616e73000000000000000000000000000000000000000000815250620001ec60201b60201c565b620001096040518060400160405280600681526020017f53616e746f730000000000000000000000000000000000000000000000000000815250620001ec60201b60201c565b6200014f6040518060400160405280600981526020017f50616c6d65697261730000000000000000000000000000000000000000000000815250620001ec60201b60201c565b33600160006101000a81548173ffffffffffffffffffffffffffffffffffffffff021916908373ffffffffffffffffffffffffffffffffffffffff160217905550816000806101000a81548173ffffffffffffffffffffffffffffffffffffffff021916908373ffffffffffffffffffffffffffffffffffffffff1602179055508043620001de9190620003a2565b600481905550505062000567565b60026000815480929190620002019062000487565b9190505550604051806080016040528060025481526020018281526020016000815260200160008152506005600060025481526020019081526020016000206000820151816000015560208201518160010190805190602001906200026892919062000283565b50604082015181600201556060820151816003015590505050565b828054620002919062000451565b90600052602060002090601f016020900481019282620002b5576000855562000301565b82601f10620002d057805160ff191683800117855562000301565b8280016001018555821562000301579182015b8281111562000300578251825591602001919060010190620002e3565b5b50905062000310919062000314565b5090565b5b808211156200032f57600081600090555060010162000315565b5090565b600081519050620003448162000533565b92915050565b6000815190506200035b816200054d565b92915050565b600080604083850312156200037557600080fd5b6000620003858582860162000333565b925050602062000398858286016200034a565b9150509250929050565b6000620003af8262000447565b9150620003bc8362000447565b9250827fffffffffffffffffffffffffffffffffffffffffffffffffffffffffffffffff03821115620003f457620003f3620004d5565b5b828201905092915050565b60006200040c8262000427565b9050919050565b60006200042082620003ff565b9050919050565b600073ffffffffffffffffffffffffffffffffffffffff82169050919050565b6000819050919050565b600060028204905060018216806200046a57607f821691505b6020821081141562000481576200048062000504565b5b50919050565b6000620004948262000447565b91507fffffffffffffffffffffffffffffffffffffffffffffffffffffffffffffffff821415620004ca57620004c9620004d5565b5b600182019050919050565b7f4e487b7100000000000000000000000000000000000000000000000000000000600052601160045260246000fd5b7f4e487b7100000000000000000000000000000000000000000000000000000000600052602260045260246000fd5b6200053e8162000413565b81146200054a57600080fd5b50565b620005588162000447565b81146200056457600080fd5b50565b611ed880620005776000396000f3fe6080604052600436106100945760003560e01c80634df3c900116100595780634df3c900146104fe5780636ffcc7191461052957806388c9cb3c14610566578063ae8aa95414610591578063c497bc4c146105ce576103da565b80624f4803146103df578063083c63231461041c5780630ad245281461044757806322af00fa146104845780633ed2b77a146104c1576103da565b366103da5760006107d0670de0b6b3a7640000346100b29190611a70565b6100bc9190611aa1565b9050600160009054906101000a900473ffffffffffffffffffffffffffffffffffffffff1673ffffffffffffffffffffffffffffffffffffffff163373ffffffffffffffffffffffffffffffffffffffff16141561014f576040517f08c379a0000000000000000000000000000000000000000000000000000000008152600401610146906118f7565b60405180910390fd5b600073ffffffffffffffffffffffffffffffffffffffff163373ffffffffffffffffffffffffffffffffffffffff1614156101bf576040517f08c379a00000000000000000000000000000000000000000000000000000000081526004016101b690611957565b60405180910390fd5b8060008054906101000a900473ffffffffffffffffffffffffffffffffffffffff1673ffffffffffffffffffffffffffffffffffffffff166370a08231600160009054906101000a900473ffffffffffffffffffffffffffffffffffffffff166040518263ffffffff1660e01b815260040161023b9190611756565b60206040518083038186803b15801561025357600080fd5b505afa158015610267573d6000803e3d6000fd5b505050506040513d601f19601f8201168201806040525081019061028b9190611436565b10156102cc576040517f08c379a00000000000000000000000000000000000000000000000000000000081526004016102c390611857565b60405180910390fd5b60008054906101000a900473ffffffffffffffffffffffffffffffffffffffff1673ffffffffffffffffffffffffffffffffffffffff166323b872dd600160009054906101000a900473ffffffffffffffffffffffffffffffffffffffff1633846040518463ffffffff1660e01b815260040161034b9392919061179a565b602060405180830381600087803b15801561036557600080fd5b505af1158015610379573d6000803e3d6000fd5b505050506040513d601f19601f8201168201806040525081019061039d91906113e4565b507f745f661b8143944fb883f50694ebed3a871e43c451d9d4bf4648a9d551d7e47a33826040516103cf9291906117d1565b60405180910390a150005b600080fd5b3480156103eb57600080fd5b506104066004803603810190610401919061140d565b6105f9565b604051610413919061181c565b60405180910390f35b34801561042857600080fd5b506104316109ff565b60405161043e9190611999565b60405180910390f35b34801561045357600080fd5b5061046e6004803603810190610469919061140d565b610a09565b60405161047b919061181c565b60405180910390f35b34801561049057600080fd5b506104ab60048036038101906104a6919061140d565b610ce9565b6040516104b891906117fa565b60405180910390f35b3480156104cd57600080fd5b506104e860048036038101906104e3919061140d565b610d8a565b6040516104f59190611977565b60405180910390f35b34801561050a57600080fd5b50610513610e67565b6040516105209190611999565b60405180910390f35b34801561053557600080fd5b50610550600480360381019061054b919061145f565b610e71565b60405161055d919061181c565b60405180910390f35b34801561057257600080fd5b5061057b6112d7565b6040516105889190611999565b60405180910390f35b34801561059d57600080fd5b506105b860048036038101906105b391906113bb565b6112ec565b6040516105c59190611999565b60405180910390f35b3480156105da57600080fd5b506105e3611335565b6040516105f09190611999565b60405180910390f35b6000600660003373ffffffffffffffffffffffffffffffffffffffff1673ffffffffffffffffffffffffffffffffffffffff1681526020019081526020016000205460008111801561064d57506002548111155b61068c576040517f08c379a000000000000000000000000000000000000000000000000000000000815260040161068390611897565b60405180910390fd5b8260008060009054906101000a900473ffffffffffffffffffffffffffffffffffffffff1673ffffffffffffffffffffffffffffffffffffffff1663dd62ed3e33306040518363ffffffff1660e01b81526004016106eb929190611771565b60206040518083038186803b15801561070357600080fd5b505afa158015610717573d6000803e3d6000fd5b505050506040513d601f19601f8201168201806040525081019061073b9190611436565b905060008111610780576040517f08c379a0000000000000000000000000000000000000000000000000000000008152600401610777906118b7565b60405180910390fd5b818110156107c3576040517f08c379a00000000000000000000000000000000000000000000000000000000081526004016107ba90611877565b60405180910390fd5b6000600660003373ffffffffffffffffffffffffffffffffffffffff1673ffffffffffffffffffffffffffffffffffffffff168152602001908152602001600020541415610846576040517f08c379a000000000000000000000000000000000000000000000000000000000815260040161083d90611917565b60405180910390fd5b60045443111561088b576040517f08c379a000000000000000000000000000000000000000000000000000000000815260040161088290611937565b60405180910390fd5b6000600660003373ffffffffffffffffffffffffffffffffffffffff1673ffffffffffffffffffffffffffffffffffffffff16815260200190815260200160002054905060008054906101000a900473ffffffffffffffffffffffffffffffffffffffff1673ffffffffffffffffffffffffffffffffffffffff166323b872dd3330896040518463ffffffff1660e01b815260040161092c9392919061179a565b602060405180830381600087803b15801561094657600080fd5b505af115801561095a573d6000803e3d6000fd5b505050506040513d601f19601f8201168201806040525081019061097e91906113e4565b50856005600083815260200190815260200160002060030160008282546109a59190611a1a565b9250508190555085600360008282546109be9190611a1a565b92505081905550807fe9d70de532a802234faecfefff413d0f23be341dc7100135c98c39accc97ec0960405160405180910390a26001945050505050919050565b6000600454905090565b600081600081118015610a1e57506002548111155b610a5d576040517f08c379a0000000000000000000000000000000000000000000000000000000008152600401610a5490611897565b60405180910390fd5b600160009054906101000a900473ffffffffffffffffffffffffffffffffffffffff1673ffffffffffffffffffffffffffffffffffffffff163373ffffffffffffffffffffffffffffffffffffffff1614610aed576040517f08c379a0000000000000000000000000000000000000000000000000000000008152600401610ae490611837565b60405180910390fd5b6004544311610b31576040517f08c379a0000000000000000000000000000000000000000000000000000000008152600401610b2890611937565b60405180910390fd5b60006005600085815260200190815260200160002060020154600354610b579190611a70565b905060005b6007600086815260200190815260200160002080549050811015610cb05760008054906101000a900473ffffffffffffffffffffffffffffffffffffffff1673ffffffffffffffffffffffffffffffffffffffff1663a9059cbb600760008881526020019081526020016000208381548110610c01577f4e487b7100000000000000000000000000000000000000000000000000000000600052603260045260246000fd5b9060005260206000200160009054906101000a900473ffffffffffffffffffffffffffffffffffffffff16846040518363ffffffff1660e01b8152600401610c4a9291906117d1565b602060405180830381600087803b158015610c6457600080fd5b505af1158015610c78573d6000803e3d6000fd5b505050506040513d601f19601f82011682018060405250810190610c9c91906113e4565b508080610ca890611bdc565b915050610b5c565b50837f601095663bda08ac0f932087ef2eb08e42e4bcd1927f3a8d9500f6ad2c5aef9060405160405180910390a2600192505050919050565b606060076000838152602001908152602001600020805480602002602001604051908101604052809291908181526020018280548015610d7e57602002820191906000526020600020905b8160009054906101000a900473ffffffffffffffffffffffffffffffffffffffff1673ffffffffffffffffffffffffffffffffffffffff1681526020019060010190808311610d34575b50505050509050919050565b610d9261133f565b6005600083815260200190815260200160002060405180608001604052908160008201548152602001600182018054610dca90611baa565b80601f0160208091040260200160405190810160405280929190818152602001828054610df690611baa565b8015610e435780601f10610e1857610100808354040283529160200191610e43565b820191906000526020600020905b815481529060010190602001808311610e2657829003601f168201915b50505050508152602001600282015481526020016003820154815250509050919050565b6000600354905090565b600082600081118015610e8657506002548111155b610ec5576040517f08c379a0000000000000000000000000000000000000000000000000000000008152600401610ebc90611897565b60405180910390fd5b8260008060009054906101000a900473ffffffffffffffffffffffffffffffffffffffff1673ffffffffffffffffffffffffffffffffffffffff1663dd62ed3e33306040518363ffffffff1660e01b8152600401610f24929190611771565b60206040518083038186803b158015610f3c57600080fd5b505afa158015610f50573d6000803e3d6000fd5b505050506040513d601f19601f82011682018060405250810190610f749190611436565b905060008111610fb9576040517f08c379a0000000000000000000000000000000000000000000000000000000008152600401610fb0906118b7565b60405180910390fd5b81811015610ffc576040517f08c379a0000000000000000000000000000000000000000000000000000000008152600401610ff390611877565b60405180910390fd5b6000600660003373ffffffffffffffffffffffffffffffffffffffff1673ffffffffffffffffffffffffffffffffffffffff168152602001908152602001600020541461107e576040517f08c379a0000000000000000000000000000000000000000000000000000000008152600401611075906118d7565b60405180910390fd5b6004544311156110c3576040517f08c379a00000000000000000000000000000000000000000000000000000000081526004016110ba90611937565b60405180910390fd5b60008054906101000a900473ffffffffffffffffffffffffffffffffffffffff1673ffffffffffffffffffffffffffffffffffffffff166323b872dd3330886040518463ffffffff1660e01b81526004016111209392919061179a565b602060405180830381600087803b15801561113a57600080fd5b505af115801561114e573d6000803e3d6000fd5b505050506040513d601f19601f8201168201806040525081019061117291906113e4565b5060056000878152602001908152602001600020600201600081548092919061119a90611bdc565b9190505550846005600088815260200190815260200160002060030160008282546111c59190611a1a565b9250508190555060076000878152602001908152602001600020339080600181540180825580915050600190039060005260206000200160009091909190916101000a81548173ffffffffffffffffffffffffffffffffffffffff021916908373ffffffffffffffffffffffffffffffffffffffff16021790555085600660003373ffffffffffffffffffffffffffffffffffffffff1673ffffffffffffffffffffffffffffffffffffffff1681526020019081526020016000208190555084600360008282546112969190611a1a565b92505081905550857faafe7626a72bd75ec7ced69dcd69982de334a6c527d4574c97773c98f262539f60405160405180910390a26001935050505092915050565b6000436004546112e79190611afb565b905090565b6000600660008373ffffffffffffffffffffffffffffffffffffffff1673ffffffffffffffffffffffffffffffffffffffff168152602001908152602001600020549050919050565b6000600254905090565b6040518060800160405280600081526020016060815260200160008152602001600081525090565b60008135905061137681611e5d565b92915050565b60008151905061138b81611e74565b92915050565b6000813590506113a081611e8b565b92915050565b6000815190506113b581611e8b565b92915050565b6000602082840312156113cd57600080fd5b60006113db84828501611367565b91505092915050565b6000602082840312156113f657600080fd5b60006114048482850161137c565b91505092915050565b60006020828403121561141f57600080fd5b600061142d84828501611391565b91505092915050565b60006020828403121561144857600080fd5b6000611456848285016113a6565b91505092915050565b6000806040838503121561147257600080fd5b600061148085828601611391565b925050602061149185828601611391565b9150509250929050565b60006114a783836114b3565b60208301905092915050565b6114bc81611b2f565b82525050565b6114cb81611b2f565b82525050565b60006114dc826119c4565b6114e681856119e7565b93506114f1836119b4565b8060005b83811015611522578151611509888261149b565b9750611514836119da565b9250506001810190506114f5565b5085935050505092915050565b61153881611b41565b82525050565b6000611549826119cf565b61155381856119f8565b9350611563818560208601611b77565b61156c81611cb2565b840191505092915050565b6000611584601a83611a09565b915061158f82611cc3565b602082019050919050565b60006115a7601d83611a09565b91506115b282611cec565b602082019050919050565b60006115ca601e83611a09565b91506115d582611d15565b602082019050919050565b60006115ed601783611a09565b91506115f882611d3e565b602082019050919050565b6000611610601b83611a09565b915061161b82611d67565b602082019050919050565b6000611633601d83611a09565b915061163e82611d90565b602082019050919050565b6000611656601d83611a09565b915061166182611db9565b602082019050919050565b6000611679601b83611a09565b915061168482611de2565b602082019050919050565b600061169c601183611a09565b91506116a782611e0b565b602082019050919050565b60006116bf602083611a09565b91506116ca82611e34565b602082019050919050565b60006080830160008301516116ed6000860182611738565b5060208301518482036020860152611705828261153e565b915050604083015161171a6040860182611738565b50606083015161172d6060860182611738565b508091505092915050565b61174181611b6d565b82525050565b61175081611b6d565b82525050565b600060208201905061176b60008301846114c2565b92915050565b600060408201905061178660008301856114c2565b61179360208301846114c2565b9392505050565b60006060820190506117af60008301866114c2565b6117bc60208301856114c2565b6117c96040830184611747565b949350505050565b60006040820190506117e660008301856114c2565b6117f36020830184611747565b9392505050565b6000602082019050818103600083015261181481846114d1565b905092915050565b6000602082019050611831600083018461152f565b92915050565b6000602082019050818103600083015261185081611577565b9050919050565b600060208201905081810360008301526118708161159a565b9050919050565b60006020820190508181036000830152611890816115bd565b9050919050565b600060208201905081810360008301526118b0816115e0565b9050919050565b600060208201905081810360008301526118d081611603565b9050919050565b600060208201905081810360008301526118f081611626565b9050919050565b6000602082019050818103600083015261191081611649565b9050919050565b600060208201905081810360008301526119308161166c565b9050919050565b600060208201905081810360008301526119508161168f565b9050919050565b60006020820190508181036000830152611970816116b2565b9050919050565b6000602082019050818103600083015261199181846116d5565b905092915050565b60006020820190506119ae6000830184611747565b92915050565b6000819050602082019050919050565b600081519050919050565b600081519050919050565b6000602082019050919050565b600082825260208201905092915050565b600082825260208201905092915050565b600082825260208201905092915050565b6000611a2582611b6d565b9150611a3083611b6d565b9250827fffffffffffffffffffffffffffffffffffffffffffffffffffffffffffffffff03821115611a6557611a64611c25565b5b828201905092915050565b6000611a7b82611b6d565b9150611a8683611b6d565b925082611a9657611a95611c54565b5b828204905092915050565b6000611aac82611b6d565b9150611ab783611b6d565b9250817fffffffffffffffffffffffffffffffffffffffffffffffffffffffffffffffff0483118215151615611af057611aef611c25565b5b828202905092915050565b6000611b0682611b6d565b9150611b1183611b6d565b925082821015611b2457611b23611c25565b5b828203905092915050565b6000611b3a82611b4d565b9050919050565b60008115159050919050565b600073ffffffffffffffffffffffffffffffffffffffff82169050919050565b6000819050919050565b60005b83811015611b95578082015181840152602081019050611b7a565b83811115611ba4576000848401525b50505050565b60006002820490506001821680611bc257607f821691505b60208210811415611bd657611bd5611c83565b5b50919050565b6000611be782611b6d565b91507fffffffffffffffffffffffffffffffffffffffffffffffffffffffffffffffff821415611c1a57611c19611c25565b5b600182019050919050565b7f4e487b7100000000000000000000000000000000000000000000000000000000600052601160045260246000fd5b7f4e487b7100000000000000000000000000000000000000000000000000000000600052601260045260246000fd5b7f4e487b7100000000000000000000000000000000000000000000000000000000600052602260045260246000fd5b6000601f19601f8301169050919050565b7f4f6e6c79204f7267616e697a65722063616e2063616c6c206974000000000000600082015250565b7f746f74616c206f6620746f6b656e206973206e6f7420656e6f75676874000000600082015250565b7f616c6c6f77616e6365206d75737420746f206265203e3d20616d6f756e740000600082015250565b7f7465616d4964204d55535420746f2062652076616c6964000000000000000000600082015250565b7f74686973206d75737420746f20626520616e20617070726f7665640000000000600082015250565b7f4163636f756e74206d75737420746f206265206e6f6e20426574746572000000600082015250565b7f6d73672e73656e6465722063616e2774206265206f7267616e697a6572000000600082015250565b7f4163636f756e74206d75737420746f2062652061206265747465720000000000600082015250565b7f54696d65206e6f74206f76657220796574000000000000000000000000000000600082015250565b7f6d73672e73656e6465722063616e2774206265207a65726f2061646472657373600082015250565b611e6681611b2f565b8114611e7157600080fd5b50565b611e7d81611b41565b8114611e8857600080fd5b50565b611e9481611b6d565b8114611e9f57600080fd5b5056fea2646970667358221220a8afe74d9cac3a1d13ce6077b634b5657b5bd18b9698bb752af8f1f6b303777e64736f6c63430008040033",
  "linkReferences": {},
  "deployedLinkReferences": {}
}